:020000040000fa
:080000000c02040000000000e6
:020000040000fa
:100400009a02040000000000aa0c04000000000092
:1004100000000400000000006f302100807f2400f5
:100420000001880000000000050007000c00070024
:10043000a6240200000000000040da000000fe00d8
:100440004440a900000720000000e0000300320043
:1004500000002000a00188004440a8000000060021
:1004600020502200010020001600370062004000ea
:10047000e0804800910188009001ba0062004000cd
:10048000e0804800910188009002ba0062004000bc
:10049000e08048000002eb006028e10005003a001f
:1004a0008301e90007003300038009000059eb00d5
:1004b000040037006128e100010032000082eb00f7
:1004c00005000700910188001001ba000200e00059
:1004d000e6ff3a00000005009101880080027800e4
:1004e00062004000e08048003559ba008301e9000d
:1004f000080032002559ba008301e90005003200e6
:100500000400e000f4ff320015d9ba008301e900cd
:10051000f1ff3a0000000600800178000200e000d0
:1005200003003200815978000201e900fdff3a0022
:1005300000000600889fbe0080047800010078005b
:100540000204780089017800110020001b000700d8
:1005500089007800880f5000010032008000eb0015
:10056000010078004f04be00000006000000fa0001
:100570004fb99700e8815700611d2100a029200094
:10058000660007000080fa0000000600611d2100df
:10059000170107000000e00005003500611d210083
:1005a000a00020005c0107000000e00002003d0008
:1005b0000080eb000000060000000500e487470013
:1005c000889fbe008a9fbe008c9fbe008e1f780051
:1005d00081bf9f00820078008304780000077800c4
:1005e0000fb997000116b8008c0578000001eb00e8
:1005f0000c00e00042003200010178008fb9970042
:100600000300e0003e0032000c00e0002e0032004b
:10061000c900900069009000808f500004003900ec
:1006200009007800610107000000e00026003500a5
:1006300019a8a300060032000b017800a1002000d9
:100640000e0078009e0107000005780001003700c9
:100650000005eb000b0478000a00e0000200320005
:100660000e0055000004e80069009000c9019000e8
:1006700003005000880f5000020031000005eb001d
:1006800000047800080178008e00780003007800ec
:10069000940107000807470088855500490090002d
:1006a00008004000c00498000a00e0000400320086
:1006b00009007800920107000000e00002003a0003
:1006c0000b00e000d2ff3a0019b8a300020032008c
:1006d000090078008a01070000c0200019006000ae
:1006e0000200320049009000e00498000b00560020
:1006f0008fb99700110009000380d800000178002d
:10070000020078004f0778004f06be004f05be007c
:100710004f04be004f00b100000006006200fa0066
:10072000889fbe008a9fbe000004be0002057800bc
:10073000830078006a805700ad010700f88f9f00a2
:1007400089979f000000eb00909f9f001a80fb009c
:100750008005fb000000ea00cf04de0009047800f9
:1007600050022000808f550001003a000904e90082
:100770000800e0000c0034000f909700080178009a
:100780008a007800ff8997000300010080979f008e
:100790008080eb000000e000900032001f9897007e
:1007a00008004000909f9f0009054500500220006e
:1007b000808f5500040032000b00e000e3ff3a0098
:1007c0009f989700850037000000eb00f0979f008e
:1007d000e0979f00d0979f00c0979f00b0979f0021
:1007e000a0979f00b09f9f0009003700802521003f
:1007f000008050000000d000e125210001004000f1
:10080000bf98970090807000b19f9f000a05e80094
:100810009a00fb0080252100770107008000780006
:100820000000e000f1ff3a00a0c2b3009a4f1000b0
:100830000e003a003fb897000080e900b0bf9f006b
:1008400010007800a09f9f000000e00005003d0020
:100850000000ea00a09f9f003f9897000020a000a2
:10086000b09f9f000a05e80011003700a19f9f007c
:100870000b003700af989700f0ff2700808f5000e3
:10088000060032006a09b9001a00fb0002004000ad
:1008900001fd2f0001004000a09f9f000a05e80015
:1008a0001a00fb005c0107000000e000f1ff3a00c5
:1008b000e0c2b3009a4f1000030032000080eb004a
:1008c000809f9f001c003700a0c2b300da4f1000c9
:1008d00007003a003fb897000080e900b0bf9f00d2
:1008e00010007800809f9f000a05e8001200370082
:1008f0000000eb00809f9f000b0037008f9897004f
:10090000f0ff2700808f5000060032006a09b9000e
:100910001a00fb000200400001fd2f000100400012
:10092000809f9f000a05e8001a00fb003a010700bb
:100930000000e000f1ff3a009a00fb00e0272100f0
:100940002d0107008040eb000000e00001003200b4
:10095000ba407800817f9f0080c6b30080cf5000ee
:1009600004003a009acf100002003a00664050009e
:10097000070037008f789700c0c6b30080cf5000c3
:1009800005003a009acf100003003a00654040008d
:10099000807f9f000a05e800a0fb2f00008447002d
:1009a0003a01fb0088017800ea80570060f92f00c7
:1009b0000f0040001e0107000000e00006003a00a2
:1009c0008800780060f92f000f0040009e020700a9
:1009d0000000e0005dff3d008080eb00010078003a
:1009e0004f05be004f04be000080fa000000060064
:1009f000889fbe008a9fbe000005780081047800b1
:100a00001004e00030003200c9009000690090003e
:100a1000808f50000400390009007800630007004f
:100a20000000e0003000350019a8a30005003200e6
:100a3000a10020000a00780051030700800578001b
:100a4000010037008005eb000b00e00003003200de
:100a50000a8055000004e800030037000a0078000f
:100a6000510307000004780069009000c90190005c
:100a700003005000880f5000020031008005eb0099
:100a800000047800080178008a00780003007800ec
:100a90009400070008054500490090000800400048
:100aa000c00498000b00e000050032000900780047
:100ab000930007008080eb000000e00012003a0085
:100ac0001a04e000d0ff3a0019b8a3000800320071
:100ad000090078008a0007008080eb000000e00039
:100ae00009003a00020037008080eb000600370062
:100af00000c0200019006000020032004900900090
:100b0000e00498008000eb00010078004f05be0073
:100b10004f04be0000000600889fbe00010478005c
:100b200080447800c100900068009000808f5000e1
:100b300005003900080078001c0007008080eb00e9
:100b40000000e00016003500e800440011007800c5
:100b500009587800800878001800780000b8a300d1
:100b600004003a0000a8a30007003200eacf5400b6
:100b700005003a0008007800610007008080eb0063
:100b80000000e00006003a0000c0200018006000ed
:100b90000200320048009000600498008980fb0049
:100ba000010078004f04be0000000600889fbe00d0
:100bb00000047800c0019000600090008000eb000d
:100bc000808f51003b003900180178002000290077
:100bd00000006100e20f50000900320002007800be
:100be0000090a0000200e000020035000020240078
:100bf00000007100000c78008080eb002d003700b1
:100c00000100260001006100810f500008003a0039
:100c100038009000808f51000500390008007800ee
:100c2000370007008080eb000000e00021003a0060
:100c300000c020001800600017003a006002200089
:100c400008004000a8049000808f540012003a0071
:100c50000020200014030700800078002004980082
:100c60000000e00005003a002904980049049800bb
:100c70000900e80030049800060037001860a00062
:100c8000400498000020b00030049800410c980007
:100c9000510c98003b030700280090005004980076
:100ca000380090006004980000002600180c7000c6
:100cb0008000eb00010078004f04be000000060039
:100cc0000200e0000500320090cf10000400320066
:100cd0000000e8000201e900fbff3a000000eb0021
:100ce00000000600800178000200e00003003200ee
:100cf000b15978000201e900fdff3a00000006004a
:100d0000889fbe00000478000000e0000f003a0059
:100d10006044b8000800d0006122210060807800a3
:100d20000000e00004003200f5ff07000000e000d2
:100d300001003d008084eb000804e8000900780011
:100d4000e70f540028003c00f2ff370010d8a30042
:100d500024003200a004900040009000808f5400d6
:100d60000b00310009015000384090000000fb00ea
:100d700089007800460407000000e00011003400fc
:100d80008084440048009000808f5400f5ff3900b3
:100d900028009000400498009800780000c02000cf
:100da0000080600002003200a804900001003700bb
:100db000b804900001e8a30009003200690498001b
:100dc00008003700a80090004104980061049800d2
:100dd000510c98001890a0000080eb000200370032
:100de000590c98000000eb004f04be000000060004
:100df000010878000000060090cf100005003200c6
:100e00001004e00001003a0000000500d0cf1000ff
:100e1000fbff3a00000006000003b10003003500ac
:100e20009000b10001003c0010000500000005002a
:100e3000889fbe008a1f78000004780001027800b5
:100e400002457800830478000200fb00cf80de00ba
:100e50005002b1000180b10032052000820f500025
:100e6000e08f58006b013e00006001006301370015
:100e700068013700670137006601370065013700f8
:100e800064013700630137006201370061013700f8
:100e9000600137005f0137005e0137005d013700f8
:100ea0005c0137005b0137005a01370059013700f8
:100eb00058013700570137005601370055013700f8
:100ec00054013700530137005201370051013700f8
:100ed000500137004f0137004e0137004d013700f8
:100ee0004c0137004b0137004a01370049013700f8
:100ef00048013700470137004601370045013700f8
:100f000044013700430137004201370041013700f7
:100f1000400137003f0137003e0137003d013700f7
:100f20003c013700210137003a0137003901370011
:100f300038013700370137008100370035013700ad
:100f400034013700330137003201370031013700f7
:100f5000300137002f0137002e0137002d013700f7
:100f60002c013700150037001c003700290137001d
:100f70002801370027013700260137001700370006
:100f800024013700230137002201370021013700f7
:100f9000c20037006a003700f50037001d01370036
:100fa0001c013700010137001a01370064003700c7
:100fb0001801370017013700610037006e01440047
:100fc00012007800808141009480e900010a7800d5
:100fd0000009e80091497800170137002861900066
:100fe000c0c6b300804f51000a003a009400780058
:100ff00064805000000a78001000be004f89de00b7
:10100000cf91de000002be00020378008203780068
:101010001600370010c7b300804f510003003a009c
:101020001401780068005100050037009400780032
:10103000a0c6b300804f510005003a006880500000
:10104000000a78003002be002003be00070037000f
:101050000180e900000a78001000780000027800a2
:10106000cfa2de000503780086037800049cbe0052
:101070000694be00a860900080c6b30080cf5000e8
:101080000f00320020c6b30080cf500006003a00a7
:10109000184078000000fb00cf80de0001017800de
:1010a000820178000a00370040c7b30080cf5000ab
:1010b000030032006640400080cf500006003a0036
:1010c00018007800cf80de000101780082017800ee
:1010d000009cbe000294be003800be002801be0085
:1010e000e00f5000e08f5800e00f5900e08f5900ea
:1010f00004003d006e01440092007800d0c2b300ad
:101100000c003700081090000018a3000400320003
:101110006e01440092007800b0c2b30005003700b1
:101120000008a300580032006e01440092007800cd
:1011300000c2b30080f478000109e80052003700d3
:1011400028619000c0c6b300804f510006003a00ed
:101150009400780064805000000a78001002be00fd
:101160006033b8001600370010c7b300804f51003d
:1011700003003a00140178006800510005003700b0
:1011800094007800a0c6b300804f510005003a00db
:1011900068805000000a78003002be002003be00c4
:1011a000070037000180e900000a7800100078008d
:1011b0000002780005002000060020000700200043
:1011c000049cbe000694be00a860900080c6b300d8
:1011d00080cf50000f00320020c6b30080cf5000f7
:1011e00006003a00184078000080fb000100200053
:1011f00002002000030020000a00370040c7b300af
:1012000080cf5000030032006640400080cf500085
:1012100006003a00180078000100200002002000bb
:1012200003002000009cbe000294be000810900045
:101230000038a300140032003800be002801be00b0
:10124000e00f5000e08f5800e00f5900e08f590088
:101250000d00320080c7b300804f550003003200fc
:1012600080c5b300804f550007003a006e0044006f
:101270009000780002c3b30082f478008100e80097
:101280008af478000108e8007800900000804400ab
:10129000600498008a407800410037002860900080
:1012a0008000fb00c0062000808f50002300320029
:1012b0000a003c0064005000808f5000260032007d
:1012c00004003c0066005000808f50000b0032008c
:1012d00021003700a006200005003700400720004d
:1012e000808f50001c0032001b003c006300500047
:1012f000808f500007003200170037001480e9008b
:10130000000a780010007800485c900008487800d7
:10131000490037001480e900000a780010027800c4
:1013200068089000cf80de0001017800820178001b
:10133000009abe000292be003f0037001480e90010
:10134000000a78001001780068089000cf80de0065
:101350000089be00380037001480e900000a7800d8
:1013600010007800680c9000080878003200370000
:101370001480e900000a780010007800cf80de00b9
:101380000101780082017800009cbe000294be003a
:1013900078009000008044006004980081c7b3008a
:1013a00008007800bb010700230037001480e90023
:1013b000000a780010007800600498005809900036
:1013c0000200e00002003d00f700070009003700be
:1013d0008000eb003afe0700800078000000e0008b
:1013e00003003200680090000080500001003700c8
:1013f00058089000100c98000f0037006e01440050
:101400009200780050c2b30080f178000109e80032
:1014100009003700ee00440011007800808144008c
:101420000a4278008008e8000a04e00001003a005f
:1014300054c2b300844978000000eb004f057800e7
:101440004f04be00000006000400fa00889fbe00a2
:101450008a9fbe008c1f7800000478000106780087
:1014600070089000f800900001005000880890007b
:10147000010050009808900001005000a80890005a
:1014800001005000b808900001005000c80890000a
:10149000810550000002220090bf9f00000323003e
:1014a000a0bf9f00081090000028a30018003a0079
:1014b0000b00e000160034000b0578008a04780069
:1014c000e20f550001003600290020000900e0006d
:1014d0000c00340058009000c80190000901780009
:1014e000ee80570003000100500498008080eb005c
:1014f0000000e0009c0032006808900009004000f5
:10150000600c9800090555004240a900ebff3c0023
:10151000780190000200e0000c00340058009000b8
:10152000c80190008c00780003000100500498006e
:101530008080eb000000e0008b0032006808900023
:10154000f800900001004000600c9800080890002e
:101550000000e00016003400000578008a047800de
:10156000e20f550001003600290020000900e000cc
:101570000c00340058009000c80190000901780068
:10158000ec80570003000100500498008080eb00bd
:101590000000e0007400320068089000090040007c
:1015a000600c9800090555004240a900ebff3c0083
:1015b000180990000200e0000c003400e8009000e0
:1015c00058009000c80190000300010050049800ea
:1015d0008080eb000000e0006300320068089000ab
:1015e0009808900001004000600c980028089000c6
:1015f0000000e00016003400000578008a0478003e
:10160000e20f550001003600290020000900e0002b
:101610000c00340058009000c801900009017800c7
:10162000ec80570003000100500498008080eb001c
:101630000000e0004c003200680890000900400003
:10164000600c9800090555004240a900ebff3c00e2
:10165000380990000200e0000e003400e80090001d
:10166000180890008080400058009000c801900049
:1016700003000100500498008080eb000000e000af
:101680003900320068089000b8089000010040005e
:10169000600c9800480890000000e000160034003c
:1016a000000578008a047800e20f5500010036003a
:1016b000290020000900e0000c00340058009000d0
:1016c000c801900009017800ec8057000300010078
:1016d000500498008080eb000000e00022003200ff
:1016e0006808900009004000600c9800090555004a
:1016f0004240a900ebff3c00081090000028a30026
:10170000180032000b00e000160034000b057800d2
:101710008a047800e20f55000100360029002000fd
:101720000900e0000c00340058009000c80190004f
:1017300009017800ee805700030001005004980072
:101740008080eb000000e000070032006808900095
:1017500009004000600c9800090555004240a900ae
:10176000ebff3c008000eb00010078004f067800a2
:101770004f05be004f04be000080fa0000000600c6
:101780008001eb0010417800814f510001003a00c8
:10179000800178000000e8000204e000f9ff3a0050
:1017a0000300780000000600800078001004e000cc
:1017b000020032005104e000feff3a0000805000b9
:1017c00000000600889fbe008004780051938000ce
:1017d000010078000100e0000a003a00c126210063
:1017e0006c12e2001c00320011007800908f54004f
:1017f000140036008080e8001100e000faff3a0093
:10180000150037001100e0000600320011017800d9
:10181000928f54000b0036008280e8001100e00037
:10182000faff3a0010017800c12621006093800081
:10183000820f50000800320011007800908f540091
:1018400002003e0001007800150037008080e800ab
:10185000910f1100f8ff3a0078938000890f54002f
:101860000100310009047800080078003b010700fe
:10187000000178000000e00005003a000000eb00e5
:10188000890f5400060032000804d100f3ff37002e
:10189000081978000200780037010700cbff3700f5
:1018a0004f04be0000000600881f7800630440005b
:1018b0000800a1000001eb00800f54002200360058
:1018c000e30f540001003e004800200008007800ab
:1018d000bcff0700800078000001eb000000e00082
:1018e00019003200100178009201780064805100e4
:1018f000880f50000300310012009000800878002b
:1019000007003700080041008008780012029000ac
:101910001400980011007800088851000809780028
:10192000910078000100e0000400320011009000f6
:101930008180e8000000e00001003a008000eb0038
:10194000519388000281e800020078004f0478007b
:1019500000000600881f7800880020000800d000e2
:1019600061222100608078000000e0000100320068
:101970000a0007000804e900f8ff3700a0ca2000a9
:10198000360137007852e20003003a00fbff0700ff
:1019900020c0b30078f2b70000000600889fbe00a8
:1019a00000047800d6fc0700800478001868a300c3
:1019b0000200320028009000ef0007000000eb005a
:1019c00020049800384090000004e0000500350035
:1019d0000000fb005c0107000000e0000100320095
:1019e0008084eb00181090000000e0000800320036
:1019f0005e0107000000e000010032008084eb007f
:101a000018109000dc0007000000eb001014980094
:101a10001878a3000e0032008000eb000100d00017
:101a20006222210002004000900f140006003200e4
:101a30008100e800e78f5000f8ff360008007800ca
:101a4000cd000700100037000008eb00fbff370057
:101a5000000ceb0000c0eb00304498006002200056
:101a600008004000200498004004980050049800aa
:101a7000400c980060049800500c98007004980086
:101a800076004400000c9800090078004f04be0066
:101a9000000006006f02b000889fbe008a9fbe0053
:101aa0008c9fbe008e1f7800800678007024210075
:101ab000b0b79f0080c5b30080cf50000200320055
:101ac00062232100b2b79f0083002000c3b79f00ac
:101ad000f0c6b30080cf50000a00320069404000d9
:101ae00080cf500005003200a4002000c4b79f0042
:101af00080c5b30080cf500002003a0000012000f2
:101b0000c0b79f008e0120003d04be002d05be0021
:101b100040c6b30080cf5000030032006540400053
:101b200080cf50000a003a00e00f5400e08f5c00c4
:101b3000e00f5d00e08f5d0005003d000800be0085
:101b40000a01be00370107000205be000004be0006
:101b5000e00f5400e08f5c00e00f5d00e08f5d005f
:101b600003003a005d0890000000e0000c00320025
:101b70007e012000cfb0970001027800cfa2de00e6
:101b800005037800860378000800be000a01be0045
:101b9000ba0107003fb2970064407800d0e79f0089
:101ba0004fb09700cf80de000101780082017800fd
:101bb000d0b79f00e1b79f00f2b79f0083bf9f009f
:101bc0000203be000002be000800be000a01be0003
:101bd000a3010700809ebe008296be00e00f500069
:101be000e08f5800e00f5900e08f590022003400c8
:101bf0000e00e000200034003d00be002d01be00bc
:101c00005fb29700efb297007fb397008fbb97004a
:101c10009e0107000205be000004be000e07e90099
:101c2000e1fc2f008f804000010647005fb2970063
:101c3000efb297007fb397008fbb97000800be00fc
:101c40000a01be002e0207001d0010003fb19700e0
:101c5000624e7800889ebe008a96be00e00f540057
:101c6000e08f5c00e00f5d00e08f5d00020034005b
:101c70000e00e000e0ff3c00cfb19700e88f51007c
:101c800010003a000d1090000038a3000d00320043
:101c9000f70f570006003e00e4fc2f000e02420042
:101ca000e4c07f0000c3b30080cf500005003200c5
:101cb0000e07e90000c3b300e1fc2f008e80400056
:101cc00080f07f0078011700920e98006d00900060
:101cd000e3fc2f008f8141008e80410001fc070052
:101ce0001d0e90005d089000800f560006003d001c
:101cf0000c005000800e98000d1090000040a100d4
:101d0000801698000f0037000000e0000d003d0035
:101d10000d10900074006000f00f500009003a00b0
:101d20007d089000fd009000010050008d0890009b
:101d3000010050000c0750004240a900010034008f
:101d40008e0e98004f0778004f06be004f05be006c
:101d50004f04be006f02b100000006000000e0006a
:101d6000030034008a000700e10f400001003a0040
:101d70000000eb00000006000000e000360032002a
:101d80000081e90012027800e30f520032003600b1
:101d90000408a30030003a00619380000100e000d5
:101da00002003200810f5100030031000108780069
:101db000629388001d0037008101780011009000b7
:101dc0000000e00008003200820f500006003100e1
:101dd00080017800100090000000e0000200320056
:101de000820f5000faff3900930078000180410013
:101df000800f510018003900820f500003003a0094
:101e000084894000030178000800370093009000a7
:101e10000100e0000300320004004100808f500008
:101e20000d00390011019800920198009200900075
:101e30000100e00008003200920178000300410038
:101e4000810f500004003a006a32ef00108941000f
:101e500010009000100198000000060000017800ba
:101e6000000020000000e0000800320000008000b8
:101e70000000e000050032000000e90000008800da
:101e80000000d0000100800002b0780000000600d1
:101e90000a00fa0000027800032220002522200018
:101ea0004722200086222000e20f50001b003e0047
:101eb000d0938000e10f5000040032000323200083
:101ec0002523200047232000862320001340900074
:101ed0000078a30002003a00000beb0013f0a00012
:101ee000154090000028a30001003a0015a0a000b2
:101ef000820178000200e0001000320015409000de
:101f00000008a300fdff32003100fb00800b7800c9
:101f10008301e900f9ff3a00080037003000200093
:101f2000b0bf9f00c4bf9f00d1bf9f00e2bf9f0012
:101f30006a80570000c0da006fb99700020078008d
:101f40000080fa00000006000a00fa0011002000dc
:101f5000b1bf9f00c0bf9f006a80570000c0da0079
:101f60004fb897000080fa00000006000a00fa004f
:101f700051002000b1bf9f00c0bf9f006a80570082
:101f800000c0da005fb897000080fa000000060089
:101f9000889fbe00800478007c12e20005003a00b1
:101fa0000000eb00100007008080eb000000e00064
:101fb0000a003500e8938000880078000900e000fe
:101fc0000600320009004400070007008080eb0093
:101fd0000000e00001003500880078000100780072
:101fe0004f04be0000000600800078000001eb00f6
:101ff0000000e00003003a0060282100e093880020
:102000000600370060302100808f500002003e0043
:10201000e1938800010037000081eb0002007800a6
:102020000000060060001000e08018006001190048
:10203000e081190000000600881f78000004780085
:102040005001be004000be000000420081804a00f6
:1020500002014b0083814b00009cbe000294be0035
:10206000dc00070003003100480090000000e80099
:10207000400498004f04780000000600889fbe00ce
:10208000000478008004eb005001be004000be0058
:10209000d0000700010031001900200004005000aa
:1020a000858058000601590087815900009cbe00b8
:1020b0000294be00480090000900500040049800bf
:1020c0004f04be00000006001200fa00889fbe0008
:1020d0008a9fbe008c1f78000205be000004be006f
:1020e000f4b79f0085bf9f0096bf9f00a7bf9f00ca
:1020f0000000eb00e0b79f00d0b79f00c0b79f0083
:10210000b0b79f00a0b79f000006eb005fb197003b
:102110006fb097008000d0000000e00015003d0087
:10212000e1b79f00010078000200e00001003d00df
:102130000000a000ac00070001003d000000a0006e
:10214000af00070001003d000000a000b200070042
:1021500001003d000000a0008100070001003d00db
:102160000000a000b20007007c805700b2ff07000b
:1021700014003700e1b79f00010078000200e00082
:1021800001003d000000a0009700070001003d0095
:102190000000a0009a00070001003d000000a00020
:1021a0009d00070001003d000000a0006c0007003a
:1021b00001003d000000a0009d0007007c8057004a
:1021c000aeff07006fb097000000e0000700350089
:1021d00010002000010020006011b8000804700009
:1021e000898470000a0571008b8571000c06e80077
:1021f000f0032000800f5600c4ff34006fb097003a
:102200000000e00006003d007fb297008fba970003
:102210001fbb9700afbb97007c80570086ff07006d
:102220000802be000a03be006fa897000000e0008d
:1022300004003a002fb29700bfb297004fb3970047
:10224000dfb397000400be000601be004f06780011
:102250004f05be004f04be000080fa0000000600db
:10226000881f780018002000881f780096ff07005c
:102270008f87e9004f04780000000600801feb0004
:1022800091ff07008f87e900000006000800fa00b0
:10229000889fbe008a9fbe008c1f78006e000700da
:1022a00005003d0043000700300007000c003d0022
:1022b000330007000b003700e00f5200e08f5a0098
:1022c000e00f5b00e08f5b0006003d000400be00f5
:1022d0000601be0053ff07000205be000004be0059
:1022e0001c0020002c000700ddff07000c00e000b0
:1022f000010032004bff07004f0678004f05be007b
:102300004f04be000080fa00000006000800fa003a
:10231000889fbe008a9fbe008c1f78004e00070079
:1023200002003d001c002000220007000f000700f3
:1023300001003d001200070017000700cfff070053
:102340000c00e0000100320036ff07004f06780065
:102350004f05be004f04be000080fa0000000600da
:1023600090b79f000100d00080b79f00e00f54009d
:10237000e08f5c00e00f5d00e08f5d000000060074
:102380000800be000a01be0026ff07000205be00cd
:102390000004be00000006000802be000a03be00e2
:1023a0005fb09700efb097007fb197008fb99700ab
:1023b000000006001bff07000100070000000600e8
:1023c000b0b79f00c1b79f00d2b79f00e3b79f008f
:1023d000000006000400e1000588e1000690e1002d
:1023e0000798e10000000600c0b79f000200d0007f
:1023f000b0b79f00afb097000100e00000000600fa
:10240000b0b79f000100d000a0b79f009fb0970019
:102410000100e00000000600a0b79f000100d0000e
:1024200090b79f008fb097000100e0000000060009
:1024300080b79f000804d0008984d2000a85d200aa
:102440008b85d2005fb29700efb297007fb3970001
:102450008fbb970000000600d9ff07000605be00ed
:102460000404be000006eb00e00f5000e08f5800af
:10247000e00f5900e08f590000000600889fbe0061
:102480008a9fbe008c9fbe000404b8000506b800f9
:102490008904460060854e000606b8000a0546001d
:1024a000e0854e000706b8008b054600040eb80014
:1024b000890446000a854e00050eb8000a0546004c
:1024c0008b854e00060eb8008b0546000416b8003a
:1024d0000a0546008b854e000516b8008b054600a0
:1024e000041eb8008b0546000800be000a01be00ad
:1024f0004f06be004f05be004f04be0000000600a0
:102500000800fa00889fbe008a9fbe0017000700df
:102510000605be000404be00e00f5200e08f5a0022
:10252000e00f5b00e08f5b0008003d000400be0090
:102530000601be00bbfe07000205be000004be008f
:102540000f000700b7fe0700080007000802be00e2
:102550000a03be000a000700c8ff07004f05be00bf
:102560004f04be000080fa0000000600e0b79f00a4
:10257000f1b79f0082bf9f0093bf9f00000006003d
:102580006fb09700ffb097000fb997009fb9970001
:102590000000060097c0a90097c0bf004600de00fb
:1025a000610060004700dd00710920009140780063
:1025b0000174a10080c070000100780097e0b700ae
:1025c0000000060097c0a800ac11e2000100320034
:1025d00097e0a8000000060097c0a90097c0bf00c0
:1025e0004600de00610060004700dd007109200048
:1025f000914078000174a10080c070000100780053
:1026000097e0b7006631ef00308b8000208b8800a8
:10261000208b8000108b8800ac31ef00608d800033
:10262000508d8800508d8000408d880097c0a80094
:10263000ac11e2000100320097e0a80000000600a3
:10264000618d8000000420000100500000000600a1
:10265000804178000001eb0097e0a900618d8000c7
:10266000f0032000808f500008003e00ac11e20013
:1026700009003a0033c2bf000018a30006003a0068
:102680000380fb00a01188001200200097e0a80042
:102690000200780000000600408d800082162100b4
:1026a00082004000834878000000e800408d8800e8
:1026b000ac31ec00f0032000a831b600f2ff370087
:1026c00000017800010378008002eb00e08f100029
:1026d00016003100124278008001eb0097e0a9005b
:1026e000618d8000f0032000808f500008003e00c4
:1026f000ac11e2000f003a0033c2bf000018a30083
:102700000c003a000480fb00a01188001300200098
:1027100097e0a8000300e000040032008502e80012
:102720000201e800868f5200eaff390005007800b8
:1027300000000600408d80008316210083004000c9
:10274000844878000000e800408d8800ac31ec003f
:10275000f0032000a831b600ecff370080017800bc
:10276000104178000204e000190032000404200047
:10277000608d80000000520004003a000060fe00fe
:10278000608d800000005200fcff320097e0a9003d
:10279000618d8000f0032000808f500007003e0014
:1027a000ac11e2000b003a0033c2bf000018a300d6
:1027b00008003a000280fb00a011880097e0a80002
:1027c00053407800004178000004e000e8ff3a0040
:1027d00000000600408d8000851621008500400025
:1027e000824878000000e800408d8800ac31ec00a1
:1027f000f0032000a831b600f0ff370097c0a90011
:10280000308b800097c0a800000006008080eb009d
:1028100097c0a9006611e20009003200208b8000f9
:1028200022122100820040009180fb000000e8009d
:10283000208b88006631ed00f00320006431b60083
:1028400097c0a8000100780000000600889fbe0025
:102850000004be00010178008000eb002ef70700a5
:102860000001eb000900e000140032008080eb0062
:1028700097c0a9006611e20009003200208b800099
:1028800023122100830040009180fb000000e8003b
:10289000208b88006631ed00f00320006431b60023
:1028a00097c0a8000100e00004003500015c78003a
:1028b0000201e800890f5100ecff390002007800a6
:1028c0004f04be0000000600889fbe000004be004a
:1028d000010178008000eb000ff707000001eb001a
:1028e0000900e0001900340097c0a900308b800077
:1028f00097c0a8000000e000fbff32008080eb00e2
:1029000097c0a9006611e20009003200208b800008
:1029100023122100830040009180fb000000e800aa
:10292000208b88006631ed00f00320006431b60092
:1029300097c0a800ff8f500004003400015c7800ad
:102940000201e800890f5100e7ff3500020078001e
:102950004f04be00000006009560a9008560a90034
:10296000000028000011880080118800004020002d
:102970009011880010118800b002200040118800da
:10298000c011880097c0a90097c0bf004600de00b4
:10299000610060004700dd0071092000914078006f
:1029a0000174a10080c070000100780097e0b700ba
:1029b0006631ef00308b8000208b8800208b8000f8
:1029c000108b8800ac31ef00608d8000508d880046
:1029d000508d8000408d880097c0a800ac11e200a7
:1029e0000100320097e0a80087c0a90097c0a900a5
:1029f0000000060022c2bf000008a300fdff320055
:102a0000301180000080fb0000000600804078004c
:102a100023c2bf000008a300fdff32000180fb00bd
:102a20002011880000000600000178009040780026
:102a30000104e0000900320023c2bf000008a30027
:102a4000fdff32000180fb00201188005240780019
:102a5000804078000004e000f7ff3a000000060024
:102a6000889fbe000004be00010178008000eb00da
:102a7000a9f607008000eb000900e0000b0034001d
:102a800022c2bf000008a300fdff32003011800009
:102a90000080fb00ed0f500004003200005c780065
:102aa0008100e800898f5000f5ff350001007800b3
:102ab0004f04be000000060032c2bf000008a300a1
:102ac000fdff3200b01180000080fb000000060016
:102ad00032c2bf0061006000000006008040780044
:102ae00033c2bf000008a300fdff32000180fb00dd
:102af000a0118800000006000001780090407800d6
:102b00000104e0000900320033c2bf000008a30046
:102b1000fdff32000180fb00a011880052407800c8
:102b2000804078000004e000f7ff3a000000060053
:102b3000889fbe000004be00010178008000eb0009
:102b400075f607008000eb000900e0000b00340080
:102b500032c2bf000008a300fdff3200b0118000a8
:102b60000080fb00ed0f500004003200005c780094
:102b70008100e800898f5000f5ff350001007800e2
:102b80004f04be00000006002023ef002223ef00c8
:102b90002423ef003223ef006023ef006223ef00d5
:102ba0006423ef007223ef0021e3a900c2cfb3003a
:102bb000024078002163b60003ceb30003407800e2
:102bc0002063b7002043a8002063a9002143a80088
:102bd0002183a800024078002363b60036ccb300fe
:102be000064078002263b6002223a90023c3bf0059
:102bf0007f40600005c2b3000540700023e3b700ca
:102c000025e3a90081938000ffc0600025c3bf00b9
:102c1000034060000140700025e3b70072d2bf009e
:102c200024e3b7003223ef008080eb0061198800b5
:102c300044002000441988002c83a9003023ef00b1
:102c400085a0a90095a0a9002003a90061e3a9001f
:102c5000024078006163b600034078006063b7000b
:102c60006043a8006063a9006143a8006183a800d5
:102c7000024078006363b600064078006263b600e5
:102c80006223a90063c3bf007f406000054070005d
:102c900063e3b70065e3a90065c3bf0003406000bc
:102ca0000024a00065e3b70080c0b30064e3b70070
:102cb0007223ef00611b88007023ef00441b880023
:102cc0006c83a90086a0a90096a0a9006003a900b2
:102cd000000006002023ef002223ef002423ef0052
:102ce0003223ef006023ef006223ef006423ef0044
:102cf0007223ef0021e3a900c1cfb30001407800a7
:102d00002163b60002ceb300024078002063b70012
:102d10002043a8002063a9002143a9002183a80023
:102d2000014078002363b60034ccb300044078003f
:102d30002263b6002223a90023c3bf007f406000a6
:102d400003c2b3000340700023e3b70025e3a900ea
:102d5000024078002563b60030c0b30024e3b7001a
:102d60003223ef008082eb006519880046002000c6
:102d7000461988002c83a9003023ef0085a0a90004
:102d800095a0a9002003a90061e3a90001407800f3
:102d90006163b600024078006063b7006043a8003a
:102da0006063a9006143a9006183a8000140780025
:102db0006363b600044078006263b6006223a90032
:102dc00063c3bf007f4060000340700063e3b7004f
:102dd00065e3a90065c3bf00024060000024a000b5
:102de00065e3b70080c0b30064e3b7007223ef006f
:102df000651b88007023ef00461b88006c83a900c8
:102e000086a0a90096a0a9006003a9000000060002
:102e100085a0a90095a0a90086a0a90096a0a90058
:102e20002003a90021e3a8006003a90061e3a80032
:102e30000000060085c0a90000400600801f780041
:102e400010002000004088008480a9004f00780016
:102e500000400600ea874700889fbe008a9fbe00a8
:102e60008c9fbe008e1f78007612e200cf053200e4
:102e70001041800011408000d1b79f0081006800a0
:102e8000dfb1970003016000114188005200320059
:102e90001042800082006800000161001142880039
:102ea0004d00320010438000820068000001610084
:102eb00011438800480032001044800082006800fe
:102ec0000001610011448800430032001045800079
:102ed0008200680000016100114588003e00320058
:102ee00010468000820068000001610011468800e1
:102ef0003900320010478000820068000001610044
:102f000011478800340032001048800082006800b9
:102f100000016100114888002f0032000208a30060
:102f2000010032002229ec000218a3000100320047
:102f30002429ec000228a300010032002629ec001d
:102f40000238a300010032002829ec000248a30047
:102f5000010032002a29ec000258a30001003200cf
:102f60002c29ec000268a300010032002e29ec009d
:102f70000278a300010032003029ec000288a3008f
:102f8000010032003229ec000298a3000100320057
:102f90003429ec0002a8a300010032003629ec001d
:102fa00002b8a300010032003829ec0002c8a300d7
:102fb000010032003a29ec0002d8a30001003200df
:102fc0003c29ec0002e8a300010032003e29ec009d
:102fd0000200e000c605350020418000214080004d
:102fe000e1b79f0081006800efb197000301600026
:102ff0002141880052003200204280008200680097
:1030000000016100214288004d0032002043800011
:1030100082006800000161002143880048003200fe
:103020002044800082006800000161002144880083
:1030300043003200204580008200680000016100ea
:10304000214588003e003200204680008200680052
:1030500000016100214688003900320020478000cd
:1030600082006800000161002147880034003200be
:10307000204880008200680000016100214888002b
:103080002f0032000208a300010032004229ec00a8
:103090000218a300010032004429ec000228a3001a
:1030a000010032004629ec000238a3000100320082
:1030b0004829ec000248a300010032004a29ec0034
:1030c0000258a300010032004c29ec000268a30062
:1030d000010032004e29ec000278a300010032000a
:1030e0005029ec000288a300010032005229ec00b4
:1030f0000298a300010032005429ec0002a8a300aa
:10310000010032005629ec0002b8a3000100320091
:103110005829ec0002c8a300010032005a29ec0033
:1031200002d8a300010032005c29ec0002e8a300f1
:10313000010032005e29ec000200e0006a05350063
:103140003041800031408000f1b79f00810068006d
:10315000ffb1970003016000314188005200320046
:103160003042800082006800000161003142880026
:103170004d00320030438000820068000001610091
:1031800031438800480032003044800082006800eb
:103190000001610031448800430032003045800066
:1031a0008200680000016100314588003e00320065
:1031b00030468000820068000001610031468800ce
:1031c0003900320030478000820068000001610051
:1031d00031478800340032003048800082006800a7
:1031e00000016100314888002f0032000208a3006e
:1031f000010032006229ec000218a3000100320035
:103200006429ec000228a300010032006629ec00ca
:103210000238a300010032006829ec000248a30034
:10322000010032006a29ec000258a30001003200bc
:103230006c29ec000268a300010032006e29ec004a
:103240000278a300010032007029ec000288a3007c
:10325000010032007229ec000298a3000100320044
:103260007429ec0002a8a300010032007629ec00ca
:1032700002b8a300010032007829ec0002c8a300c4
:10328000010032007a29ec0002d8a30001003200cc
:103290007c29ec0002e8a300010032007e29ec004a
:1032a0000200e0000e0535004041800041408000f2
:1032b00081bf9f00810068008fb997000301600003
:1032c0004141880052003200404280008200680084
:1032d00000016100414288004d00320040438000ff
:1032e000820068000001610041438800480032000c
:1032f0004044800082006800000161004144880071
:1033000043003200404580008200680000016100f7
:10331000414588003e00320040468000820068003f
:1033200000016100414688003900320040478000ba
:1033300082006800000161004147880034003200cb
:103340004048800082006800000161004148880018
:103350002f0032000208a300010032008229ec0095
:103360000218a300010032008429ec000228a30007
:10337000010032008629ec000238a300010032006f
:103380008829ec000248a300010032008a29ec00e1
:103390000258a300010032008c29ec000268a3004f
:1033a000010032008e29ec000278a30001003200f7
:1033b0009029ec000288a300010032009229ec0061
:1033c0000298a300010032009429ec0002a8a30097
:1033d000010032009629ec0002b8a300010032007f
:1033e0009829ec0002c8a300010032009a29ec00e1
:1033f00002d8a300010032009c29ec0002e8a300df
:10340000010032009e29ec000200e000b204350009
:10341000504180005e4080008e0068000e01600018
:103420005141880052003200504280008200680002
:1034300000016100514288004d003200504380007d
:10344000820068000001610051438800480032009a
:1034500050448000820068000001610051448800ef
:103460004300320050458000820068000001610086
:10347000514588003e0032005046800082006800be
:103480000001610051468800390032005047800039
:10349000820068000001610051478800340032005a
:1034a0005048800082006800000161005148880097
:1034b0002f0032000208a30001003200a229ec0014
:1034c0000218a30001003200a429ec000228a30086
:1034d00001003200a629ec000238a30001003200ee
:1034e000a829ec000248a30001003200aa29ec0040
:1034f0000258a30001003200ac29ec000268a300ce
:1035000001003200ae29ec000278a3000100320075
:10351000b029ec000288a30001003200b229ec00bf
:103520000298a30001003200b429ec0002a8a30015
:1035300001003200b629ec0002b8a30001003200fd
:10354000b829ec0002c8a30001003200ba29ec003f
:1035500002d8a30001003200bc29ec0002e8a3005d
:1035600001003200be29ec000200e00058043500e2
:10357000604180006d4080008d0068000d0160009a
:103580006141880052003200604280008200680081
:1035900000016100614288004d00320060438000fc
:1035a0008200680000016100614388004800320029
:1035b000604480008200680000016100614488006e
:1035c0004300320060458000820068000001610015
:1035d000614588003e00320060468000820068003d
:1035e00000016100614688003900320060478000b8
:1035f00082006800000161006147880034003200e9
:103600006048800082006800000161006148880015
:103610002f0032000208a30001003200c229ec0092
:103620000218a30001003200c429ec000228a30004
:1036300001003200c629ec000238a300010032006c
:10364000c829ec000248a30001003200ca29ec009e
:103650000258a30001003200cc29ec000268a3004c
:1036600001003200ce29ec000278a30001003200f4
:10367000d029ec000288a30001003200d229ec001e
:103680000298a30001003200d429ec0002a8a30094
:1036900001003200d629ec0002b8a300010032007c
:1036a000d829ec0002c8a30001003200da29ec009e
:1036b00002d8a30001003200dc29ec0002e8a300dc
:1036c00001003200de29ec000200e000fe033500bc
:1036d000704180007c4080008c0068000c0160001c
:1036e0007141880052003200704280008200680000
:1036f00000016100714288004d003200704380007b
:1037000082006800000161007143880048003200b7
:1037100070448000820068000001610071448800ec
:1037200043003200704580008200680000016100a3
:10373000714588003e0032007046800082006800bb
:103740000001610071468800390032007047800036
:103750008200680000016100714788003400320077
:103760007048800082006800000161007148880094
:103770002f0032000208a30001003200e229ec0011
:103780000218a30001003200e429ec000228a30083
:1037900001003200e629ec000238a30001003200eb
:1037a000e829ec000248a30001003200ea29ec00fd
:1037b0000258a30001003200ec29ec000268a300cb
:1037c00001003200ee29ec000278a3000100320073
:1037d000f029ec000288a30001003200f229ec007d
:1037e0000298a30001003200f429ec0002a8a30013
:1037f00001003200f629ec0002b8a30001003200fb
:10380000f829ec0002c8a30001003200fa29ec00fc
:1038100002d8a30001003200fc29ec0002e8a3005a
:1038200001003200fe29ec000200e000a403350094
:10383000804180008b4080008b0068000b0160009d
:10384000814188005200320080428000820068007e
:1038500000016100814288004d00320080438000f9
:103860008200680000016100814388004800320046
:10387000804480008200680000016100814488006b
:103880004300320080458000820068000001610032
:10389000814588003e00320080468000820068003a
:1038a00000016100814688003900320080478000b5
:1038b0008200680000016100814788003400320006
:1038c0008048800082006800000161008148880013
:1038d0002f0032000208a30001003200022aec008f
:1038e0000218a30001003200042aec000228a30001
:1038f00001003200062aec000238a3000100320069
:10390000082aec000248a300010032000a2aec0059
:103910000258a300010032000c2aec000268a30048
:10392000010032000e2aec000278a30001003200f0
:10393000102aec000288a30001003200122aec00d9
:103940000298a30001003200142aec0002a8a30090
:1039500001003200162aec0002b8a3000100320078
:10396000182aec0002c8a300010032001a2aec0059
:1039700002d8a300010032001c2aec0002e8a300d8
:10398000010032001e2aec000200e0004a0335006c
:10399000904180009a4080008a0068000a0160001f
:1039a00091418800520032009042800082006800fd
:1039b00000016100914288004d0032009043800078
:1039c00082006800000161009143880048003200d5
:1039d00090448000820068000001610091448800ea
:1039e00043003200904580008200680000016100c1
:1039f000914588003e0032009046800082006800b9
:103a00000001610091468800390032009047800033
:103a10008200680000016100914788003400320094
:103a20009048800082006800000161009148880091
:103a30002f0032000208a30001003200222aec000d
:103a40000218a30001003200242aec000228a3007f
:103a500001003200262aec000238a30001003200e7
:103a6000282aec000248a300010032002a2aec00b8
:103a70000258a300010032002c2aec000268a300c7
:103a8000010032002e2aec000278a300010032006f
:103a9000302aec000288a30001003200322aec0038
:103aa0000298a30001003200342aec0002a8a3000f
:103ab00001003200362aec0002b8a30001003200f7
:103ac000382aec0002c8a300010032003a2aec00b8
:103ad00002d8a300010032003c2aec0002e8a30057
:103ae000010032003e2aec000200e000f002350046
:103af000a0418000a94080008900680009016000a1
:103b0000a141880052003200a0428000820068007b
:103b100000016100a14288004d003200a0438000f6
:103b20008200680000016100a14388004800320063
:103b3000a04480008200680000016100a144880068
:103b400043003200a045800082006800000161004f
:103b5000a14588003e003200a04680008200680037
:103b600000016100a146880039003200a0478000b2
:103b70008200680000016100a14788003400320023
:103b8000a04880008200680000016100a148880010
:103b90002f0032000208a30001003200422aec008c
:103ba0000218a30001003200442aec000228a300fe
:103bb00001003200462aec000238a3000100320066
:103bc000482aec000248a300010032004a2aec0017
:103bd0000258a300010032004c2aec000268a30046
:103be000010032004e2aec000278a30001003200ee
:103bf000502aec000288a30001003200522aec0097
:103c00000298a30001003200542aec0002a8a3008d
:103c100001003200562aec0002b8a3000100320075
:103c2000582aec0002c8a300010032005a2aec0016
:103c300002d8a300010032005c2aec0002e8a300d5
:103c4000010032005e2aec000200e000960235001e
:103c5000b0418000b8408000880068000801600022
:103c6000b141880052003200b042800082006800fa
:103c700000016100b14288004d003200b043800075
:103c80008200680000016100b143880048003200f2
:103c9000b04480008200680000016100b1448800e7
:103ca00043003200b04580008200680000016100de
:103cb000b14588003e003200b046800082006800b6
:103cc00000016100b146880039003200b047800031
:103cd0008200680000016100b147880034003200b2
:103ce000b04880008200680000016100b14888008f
:103cf0002f0032000208a30001003200622aec000b
:103d00000218a30001003200642aec000228a3007c
:103d100001003200662aec000238a30001003200e4
:103d2000682aec000248a300010032006a2aec0075
:103d30000258a300010032006c2aec000268a300c4
:103d4000010032006e2aec000278a300010032006c
:103d5000702aec000288a30001003200722aec00f5
:103d60000298a30001003200742aec0002a8a3000c
:103d700001003200762aec0002b8a30001003200f4
:103d8000782aec0002c8a300010032007a2aec0075
:103d900002d8a300010032007c2aec0002e8a30054
:103da000010032007e2aec000200e0003c023500f7
:103db000c0418000c74080008700680007016000a4
:103dc000c141880052003200c04280008200680079
:103dd00000016100c14288004d003200c0438000f4
:103de0008200680000016100c14388004800320081
:103df000c04480008200680000016100c144880066
:103e000043003200c045800082006800000161006c
:103e1000c14588003e003200c04680008200680034
:103e200000016100c146880039003200c0478000af
:103e30008200680000016100c14788003400320040
:103e4000c04880008200680000016100c14888000d
:103e50002f0032000208a30001003200822aec0089
:103e60000218a30001003200842aec000228a300fb
:103e700001003200862aec000238a3000100320063
:103e8000882aec000248a300010032008a2aec00d4
:103e90000258a300010032008c2aec000268a30043
:103ea000010032008e2aec000278a30001003200eb
:103eb000902aec000288a30001003200922aec0054
:103ec0000298a30001003200942aec0002a8a3008b
:103ed00001003200962aec0002b8a3000100320073
:103ee000982aec0002c8a300010032009a2aec00d4
:103ef00002d8a300010032009c2aec0002e8a300d3
:103f0000010032009e2aec000200e000e2013500d0
:103f1000d0418000d6408000860068000601600025
:103f2000d141880052003200d042800082006800f7
:103f300000016100d14288004d003200d043800072
:103f40008200680000016100d1438800480032000f
:103f5000d04480008200680000016100d1448800e4
:103f600043003200d04580008200680000016100fb
:103f7000d14588003e003200d046800082006800b3
:103f800000016100d146880039003200d04780002e
:103f90008200680000016100d147880034003200cf
:103fa000d04880008200680000016100d14888008c
:103fb0002f0032000208a30001003200a22aec0008
:103fc0000218a30001003200a42aec000228a3007a
:103fd00001003200a62aec000238a30001003200e2
:103fe000a82aec000248a30001003200aa2aec0033
:103ff0000258a30001003200ac2aec000268a300c2
:1040000001003200ae2aec000278a3000100320069
:10401000b02aec000288a30001003200b22aec00b2
:104020000298a30001003200b42aec0002a8a30009
:1040300001003200b62aec0002b8a30001003200f1
:10404000b82aec0002c8a30001003200ba2aec0032
:1040500002d8a30001003200bc2aec0002e8a30051
:1040600001003200be2aec000200e00088013500a9
:10407000e0418000e54080008500680005016000a7
:10408000e141880052003200e04280008200680076
:1040900000016100e14288004d003200e0438000f1
:1040a0008200680000016100e1438800480032009e
:1040b000e04480008200680000016100e144880063
:1040c00043003200e045800082006800000161008a
:1040d000e14588003e003200e04680008200680032
:1040e00000016100e146880039003200e0478000ad
:1040f0008200680000016100e1478800340032005e
:10410000e04880008200680000016100e14888000a
:104110002f0032000208a30001003200c22aec0086
:104120000218a30001003200c42aec000228a300f8
:1041300001003200c62aec000238a3000100320060
:10414000c82aec000248a30001003200ca2aec0091
:104150000258a30001003200cc2aec000268a30040
:1041600001003200ce2aec000278a30001003200e8
:10417000d02aec000288a30001003200d22aec0011
:104180000298a30001003200d42aec0002a8a30088
:1041900001003200d62aec0002b8a3000100320070
:1041a000d82aec0002c8a30001003200da2aec0091
:1041b00002d8a30001003200dc2aec0002e8a300d0
:1041c00001003200de2aec000200e0002e01350082
:1041d000f0418000f4408000840068000401600029
:1041e000f141880052003200f042800082006800f5
:1041f00000016100f14288004d003200f043800070
:104200008200680000016100f1438800480032002c
:10421000f04480008200680000016100f1448800e1
:1042200043003200f0458000820068000001610018
:10423000f14588003e003200f046800082006800b0
:1042400000016100f146880039003200f04780002b
:104250008200680000016100f147880034003200ec
:10426000f04880008200680000016100f148880089
:104270002f0032000208a30001003200e22aec0005
:104280000218a30001003200e42aec000228a30077
:1042900001003200e62aec000238a30001003200df
:1042a000e82aec000248a30001003200ea2aec00f0
:1042b0000258a30001003200ec2aec000268a300bf
:1042c00001003200ee2aec000278a3000100320067
:1042d000f02aec000288a30001003200f22aec0070
:1042e0000298a30001003200f42aec0002a8a30007
:1042f00001003200f62aec0002b8a30001003200ef
:10430000f82aec0002c8a30001003200fa2aec00ef
:1043100002d8a30001003200fc2aec0002e8a3004e
:1043200001003200fe2aec000200e000d40035005b
:1043300000428000034180008300680003016000a8
:104340000142880052003200004380008200680071
:1043500000016100014388004d00320000448000ec
:1043600082006800000161000144880048003200ba
:10437000004580008200680000016100014588005e
:1043800043003200004680008200680000016100a6
:10439000014688003e00320000478000820068002d
:1043a00000016100014788003900320000488000a8
:1043b000820068000001610001488800340032007a
:1043c0000049800082006800000161000149880006
:1043d0002f0032000208a30001003200022bec0083
:1043e0000218a30001003200042bec000228a300f5
:1043f00001003200062bec000238a300010032005d
:10440000082bec000248a300010032000a2bec004c
:104410000258a300010032000c2bec000268a3003c
:10442000010032000e2bec000278a30001003200e4
:10443000102bec000288a30001003200122bec00cc
:104440000298a30001003200142bec0002a8a30084
:1044500001003200162bec0002b8a300010032006c
:10446000182bec0002c8a300010032001a2bec004c
:1044700002d8a300010032001c2bec0002e8a300cc
:10448000010032001e2bec000200e0007a00350033
:104490000300d000004188000400e00073003500f4
:1044a0000400d000f04088000500e0006c003500fa
:1044b0000500d000e04088000600e00065003500ff
:1044c0000600d000d04088000700e0005e00350004
:1044d0000700d000c04088000800e0005700350009
:1044e0000800d000b04088000900e000500035000e
:1044f0000900d000a04088000a00e0004900350013
:104500000a00d000904088000b00e0004200350017
:104510000b00d000804088000c00e0003b0035001c
:104520000c00d000704088000d00e0003400350021
:104530000d00d000604088000e00e0002d00350026
:104540000e00d000504088008fb897000100e000b6
:10455000250035000fb997000200d00040408800c8
:10456000ffb197000300e0001c003500ffb097008a
:104570000100d000304088006fb197000200e000d9
:1045800013003500efb197000300d00020408800f1
:10459000dfb097000100e0000a0035005fb197002e
:1045a0000200d0000000a000104088004f077800f3
:1045b0004f06be004f05be004f04be00af00b10065
:1045c000000006000000a00020408800f3ff370034
:1045d0000000a00030408800eaff37000000a00083
:1045e00040408800e1ff37000000a00050408800f4
:1045f000d8ff37000000a00060408800d0ff3700df
:104600000000a00070408800c9ff37000000a00033
:1046100080408800c2ff37000000a0009040880062
:10462000bbff37000000a000a0408800b4ff3700a7
:104630000000a000b0408800adff37000000a000df
:10464000c0408800a6ff37000000a000d0408800ce
:104650009fff37000000a000e040880098ff37006f
:104660000000a000f040880091ff37000000a0008b
:10467000004188008aff3700202bec0084ff3700c0
:10468000002bec002aff3700e02aec00d0fe3700b8
:10469000c02aec0076fe3700a02aec001cfe370092
:1046a000802aec00c2fd3700602aec0068fd37006c
:1046b000402aec000efd3700202aec00b4fc370045
:1046c000002aec005afc3700e029ec0000fc37001f
:1046d000c029ec00a6fb3700a029ec004cfb3700fa
:1046e0008029ec00f0fa37006029ec0094fa3700da
:1046f0004029ec0038fa370020002000001c880018
:1047000000302000401c880000102000501c880051
:104710008423ef0000202000301c880081e3a900e2
:10472000d0002000101c88008480a9009480a9007b
:1047300000000600000006000200240081e3a9003a
:104740009480a9008480a9008000eb00f31f200062
:104750000100d000020040000008eb008100e800ea
:104760000281e800838f5000f9ff34008480a900a3
:1047700081e3a8009480a8000028ef000000060054
:1047800081e3a9009480a9008480a90000000600ac
:1047900081c3bf000080fb004700de000080fb00fb
:1047a0000000060026b2200024d220008002eb0088
:1047b000f70f2000360078006700b8001401be0033
:1047c00000004100e0804900009abe008502e80038
:1047d000878f5200f7ff340000000600881f780022
:1047e000208020008f0109000018eb000421ef0059
:1047f00004c1bf000054a1000044a00004e1b700c0
:104800000021ef0002a1ef0005e1a8008460a900eb
:104810000021ef000004eb00f70f200026b220007b
:1048200024d220008002eb00360078006700b80038
:104830001401be0000004100e0804900009abe0063
:104840008502e800878f5200f7ff34000804e80073
:10485000ea0f5400f1ff36000008800052002000eb
:10486000110009000280d800801f7800a04c2a00a7
:10487000801f78003def07005ef80700e4875700cf
:104880004f04780000000600abff0700dbf70700cd
:104890000000e00005003a00bdff07000000e00056
:1048a000020032000060fe00f8ff3700b4ff37005e
:1048b0000421ef000021ef002017200010088800dd
:1048c00005e1a8008460a90084c0bf000038a300ef
:1048d000fdff32000000060004c1bf000044a1003b
:1048e0000054a00004e1b7000021ef000000280000
:1048f0001008880005e1a8008460a90084c0bf00fa
:104900000038a300fdff320000000600bff70700db
:10491000800078000000e00002003d000060fe0022
:10492000faff370010042000808f50000100320091
:1049300000000600004d2a0014ef070045f90700ab
:10494000704d2a0011ef0700f9ff37003460ef00c7
:104950004440a80000022000303a88007f40400018
:104960004467b60000ceb3004467b6004827ef00a6
:1049700040a7a90042c7bf000058a300fdff3200b6
:10498000f5f70700e04d2a0000ef070093ff07004e
:04499000feff3700ef
:020000040000fa
:10000800e0250000e0250000e0250000e0250000d4
:10001800e0250000e0250000e0250000e0250000c4
:10002800e0250000e0250000e0250000e0250000b4
:100038001e170000e0250000e0250000e025000074
:10004800e0250000e0250000e0250000e025000094
:10005800e0250000e02500001a170000e025000058
:10006800e0250000e0250000e0250000e025000074
:10007800e0250000e0250000e0250000e025000064
:10008800e0250000e0250000e0250000e025000054
:10009800e0250000e0250000e0250000e025000044
:1000a800e0250000e0250000e0250000e025000034
:1000b800e0250000e0250000e0250000e025000024
:1000c800e0250000e0250000e0250000e025000014
:1000d800e0250000e0250000e0250000e025000004
:1000e800e0250000e0250000e0250000e0250000f4
:1000f800e0250000e0250000e0250000e0250000e4
:10010800e0250000e0250000e0250000e0250000d3
:10011800e0250000e0250000e0250000e0250000c3
:10012800e0250000e0250000e0250000e0250000b3
:10013800e0250000e0250000e0250000e0250000a3
:10014800e0250000e0250000e0250000e025000093
:10015800e0250000e0250000e0250000e025000083
:10016800e0250000e0250000e0250000e025000073
:10017800e0250000e0250000e0250000e025000063
:10018800e0250000e0250000e0250000e025000053
:10019800e0250000e0250000e0250000e025000043
:1001a800e0250000e0250000e0250000e025000033
:1001b800e0250000e0250000e0250000e025000023
:1001c800e0250000e0250000e0250000e025000013
:1001d800e0250000e0250000e0250000e025000003
:1001e800e0250000e0250000e0250000e0250000f3
:0801f800e0250000e0250000f5
:020000040000fa
:10020800e0250000e0250000e0250000e0250000d2
:10021800e0250000e0250000e0250000e0250000c2
:10022800e0250000e0250000e0250000e0250000b2
:100238001e170000e0250000e0250000e025000072
:10024800e0250000e0250000e0250000e025000092
:10025800e0250000e02500001a170000e025000056
:10026800e0250000e0250000e0250000e025000072
:10027800e0250000e0250000e0250000e025000062
:10028800e0250000e0250000e0250000e025000052
:10029800e0250000e0250000e0250000e025000042
:1002a800e0250000e0250000e0250000e025000032
:1002b800e0250000e0250000e0250000e025000022
:1002c800e0250000e0250000e0250000e025000012
:1002d800e0250000e0250000e0250000e025000002
:1002e800e0250000e0250000e0250000e0250000f2
:1002f800e0250000e0250000e0250000e0250000e2
:10030800e0250000e0250000e0250000e0250000d1
:10031800e0250000e0250000e0250000e0250000c1
:10032800e0250000e0250000e0250000e0250000b1
:10033800e0250000e0250000e0250000e0250000a1
:10034800e0250000e0250000e0250000e025000091
:10035800e0250000e0250000e0250000e025000081
:10036800e0250000e0250000e0250000e025000071
:10037800e0250000e0250000e0250000e025000061
:10038800e0250000e0250000e0250000e025000051
:10039800e0250000e0250000e0250000e025000041
:1003a800e0250000e0250000e0250000e025000031
:1003b800e0250000e0250000e0250000e025000021
:1003c800e0250000e0250000e0250000e025000011
:1003d800e0250000e0250000e0250000e025000001
:1003e800e0250000e0250000e0250000e0250000f1
:0803f800e0250000e0250000f3
:020000040000fa
:10499400256400000d0a00000000000053740000ac
:1049a40061720000740d000000530000746f000079
:1049b400700d0000000000000d0a0000436f0000ad
:1049c40072720000656c0000617400006f72000078
:1049d4002052000065610000647900002028000076
:1049e40063290000204d0000524c000020320000da
:1049f40030300000362000002d2000000d000000a3
:020000040000fa
:104a0400221100008c000000000000007012000061
:104a14000400000002000000000028000000000064
:104a240074120000040000000200000000000100f5
:104a3400000000000008000022090000000000003f
:104a4400ae11000088000000020000000100000018
:104a540000d41100d511d40011d41100d411d40004
:104a640011c411000000000000000000000000005c
:104a74000000000000000000000000000000000032
:104a8400000208000101fc0011fd1100fc11fc00f2
:104a940011fc1100fc11ec001100000000000000ea
:104aa4000000000000000000000000000000000002
:104ab4000000000000000200080202002412250089
:104ac40012241200241224001224120014120000d2
:104ad40000000000000000000000000000000000d2
:104ae400000000000000000000000000ae11d6002d
:104af40011fe110000000000000000000000000092
:104b04000000000058120000120000000200000023
:104b1400202b2d00233000000100020000040000bf
:104b240008001000000000007e12000008000000d1
:104b340002000000686a6c00747a4c0000000000f7
:104b44006a120000060000000200000000000000dd
:104b540000000200781200000200000000000000c3
:104b64003612000022000000020000003031320042
:104b740033343500363738003961620063646500c8
:104b840066003000313233003435360037383900ae
:104b94004142430044454600000000007a120000f0
:104ba4000200000002000000010000007c1200006e
:0c4bb400020000000000000000000000f3
:020000040000fa
:044bc0000000fe00f3
:00000001FF
